:100000000C942A000C9434000C9434000C943400AA
:100010000C9434000C9434000C9434000C94340090
:100020000C9434000C9434000C9434000C94340080
:100030000C9434000C9434000C9434000C94340070
:100040000C9434000C9434000C9434000C94340060
:100050000C94340011241FBECFE5D8E0DEBFCDBF25
:100060000E948A050C9497050C940000DF93CF93AF
:10007000CDB7DEB780E00E94E50081E00E94590024
:10008000CF91DF910895DF93CF930F92CDB7DEB775
:10009000198281E00E948000813049F4898188239F
:1000A000C1F781E0898380E00E94AE01F2CF19821E
:1000B000F0CFDF93CF9300D00F92CDB7DEB7898317
:1000C0008981282F30E03B832A838A819B81009796
:1000D00031F02A813B812130310539F00BC082E0BB
:1000E00064E040E00E94B00205C081E062E040E0D0
:1000F0000E94B0020F900F900F90CF91DF91089562
:10010000DF93CF93CDB7DEB728970FB6F894DEBF55
:100110000FBECDBF8D831C821B821A8281E0898332
:100120008D81282F30E038872F838F819885009725
:1001300031F02F81388521303105F1F03AC082E06D
:1001400064E00E9494048A8305C08B819C8101969F
:100150009C838B838B819C813CE980349307A8F33B
:1001600082E064E00E949404898399818A819817CF
:1001700031F789818E831FC081E062E00E94940480
:100180008A8305C08B819C8101969C838B838B81A4
:100190009C812CE980349207A8F381E062E00E9400
:1001A0009404898399818A81981731F739813E8334
:1001B00002C089818E838E8128960FB6F894DEBFA7
:1001C0000FBECDBFCF91DF910895DF93CF9300D0C5
:1001D0000F92CDB7DEB789838981282F30E03B832A
:1001E0002A838A819B8181309105D9F02A813B81C4
:1001F000223031052CF48A819B81009761F022C066
:100200002A813B812230310591F08A819B818330A4
:10021000910599F017C081E064E041E00E94B002CE
:1002200011C081E065E041E00E94B0020BC081E0B6
:1002300066E041E00E94B00205C081E067E041E075
:100240000E94B0020F900F900F90CF91DF91089510
:10025000DF93CF9300D00F92CDB7DEB7898389812A
:10026000282F30E03B832A838A819B81813091054E
:10027000D9F02A813B81223031052CF48A819B817F
:10028000009761F022C02A813B812230310591F034
:100290008A819B818330910599F017C081E064E0E9
:1002A00041E00E94A20311C081E065E041E00E94AC
:1002B000A2030BC081E066E041E00E94A20305C0FA
:1002C00081E067E041E00E94A2030F900F900F9041
:1002D000CF91DF910895DF93CF9300D00F92CDB7E8
:1002E000DEB789838981282F30E03B832A838A8186
:1002F0009B8181309105D9F02A813B8122303105E3
:100300002CF48A819B81009761F022C02A813B8175
:100310002230310591F08A819B818330910599F0DB
:1003200017C081E064E040E00E94A20311C081E0B8
:1003300065E040E00E94A2030BC081E066E040E07F
:100340000E94A20305C081E067E040E00E94A20392
:100350000F900F900F90CF91DF910895DF93CF937F
:1003600000D00F92CDB7DEB789838981282F30E086
:100370003B832A838A819B8181309105D1F02A8138
:100380003B81223031052CF48A819B81009761F0FA
:100390001EC02A813B812230310581F08A819B81F8
:1003A0008330910581F013C081E064E00E940D0567
:1003B0000EC081E065E00E940D0509C081E066E0A5
:1003C0000E940D0504C081E067E00E940D050F90BA
:1003D0000F900F90CF91DF910895DF93CF9300D0CE
:1003E00000D0CDB7DEB789836A838981282F30E0BA
:1003F0003C832B838B819C8181309105D1F02B81B3
:100400003C81223031052CF48B819C81009761F076
:100410001EC02B813C812230310581F08B819C8173
:100420008330910581F013C0EAE3F0E08A81808394
:100430000EC0E7E3F0E08A81808309C0E4E3F0E0E6
:100440008A81808304C0E1E3F0E08A8180830F9099
:100450000F900F900F90CF91DF910895DF93CF937E
:1004600000D000D0CDB7DEB789836A838981282F79
:1004700030E03C832B838B819C8181309105D1F0CE
:100480002B813C81223031052CF48B819C8100979B
:1004900061F01EC02B813C812230310581F08B81BF
:1004A0009C818330910581F013C0EBE3F0E08A81F9
:1004B00080830EC0E8E3F0E08A81808309C0E5E331
:1004C000F0E08A81808304C0E2E3F0E08A818083E7
:1004D0000F900F900F900F90CF91DF910895DF93C1
:1004E000CF9300D000D0CDB7DEB78A838A81282F82
:1004F00030E03C832B838B819C8181309105D1F04E
:100500002B813C81223031052CF48B819C8100971A
:1005100061F01EC02B813C812230310581F08B813E
:100520009C818330910581F013C0E9E3F0E0808184
:1005300089830EC0E6E3F0E08081898309C0E3E3AC
:10054000F0E08081898304C0E0E3F0E0808189836A
:1005500089810F900F900F900F90CF91DF910895A8
:10056000DF93CF9300D000D00F92CDB7DEB7898351
:100570006A834B838981282F30E03D832C838C81D3
:100580009D818130910509F447C02C813D81223045
:1005900031052CF48C819D81009771F0CBC02C81AA
:1005A0003D812230310509F467C08C819D81833003
:1005B000910509F491C0BEC08B818130A1F4AAE3FA
:1005C000B0E0EAE3F0E08081482F8A81282F30E014
:1005D00081E090E0022E02C0880F991F0A94E2F792
:1005E000842B8C93A7C08B81882309F0A3C0AAE336
:1005F000B0E0EAE3F0E08081482F8A81282F30E0E4
:1006000081E090E0022E02C0880F991F0A94E2F761
:10061000809584238C938EC08B818130A1F4A7E3D5
:10062000B0E0E7E3F0E08081482F8A81282F30E0B6
:1006300081E090E0022E02C0880F991F0A94E2F731
:10064000842B8C9377C08B81882309F073C0A7E338
:10065000B0E0E7E3F0E08081482F8A81282F30E086
:1006600081E090E0022E02C0880F991F0A94E2F701
:10067000809584238C935EC08B818130A1F4A4E3A8
:10068000B0E0E4E3F0E08081482F8A81282F30E059
:1006900081E090E0022E02C0880F991F0A94E2F7D1
:1006A000842B8C9347C08B81882309F043C0A4E33B
:1006B000B0E0E4E3F0E08081482F8A81282F30E029
:1006C00081E090E0022E02C0880F991F0A94E2F7A1
:1006D000809584238C932EC08B818130A1F4A1E37B
:1006E000B0E0E1E3F0E08081482F8A81282F30E0FC
:1006F00081E090E0022E02C0880F991F0A94E2F771
:10070000842B8C9317C08B818823A1F4A1E3B0E0E4
:10071000E1E3F0E08081482F8A81282F30E081E0FA
:1007200090E0022E02C0880F991F0A94E2F780958C
:1007300084238C930F900F900F900F900F90CF9178
:10074000DF910895DF93CF9300D000D00F92CDB703
:10075000DEB789836A834B838981282F30E03D830C
:100760002C838C819D818130910509F447C02C81B7
:100770003D81223031052CF48C819D81009771F0F0
:10078000CBC02C813D812230310509F467C08C81BA
:100790009D818330910509F491C0BEC08B81813069
:1007A000A1F4ABE3B0E0EBE3F0E08081482F8A8175
:1007B000282F30E081E090E0022E02C0880F991FC0
:1007C0000A94E2F7842B8C93A7C08B81882309F0CD
:1007D000A3C0ABE3B0E0EBE3F0E08081482F8A8177
:1007E000282F30E081E090E0022E02C0880F991F90
:1007F0000A94E2F7809584238C938EC08B8181309C
:10080000A1F4A8E3B0E0E8E3F0E08081482F8A811A
:10081000282F30E081E090E0022E02C0880F991F5F
:100820000A94E2F7842B8C9377C08B81882309F09C
:1008300073C0A8E3B0E0E8E3F0E08081482F8A814C
:10084000282F30E081E090E0022E02C0880F991F2F
:100850000A94E2F7809584238C935EC08B8181306B
:10086000A1F4A5E3B0E0E5E3F0E08081482F8A81C0
:10087000282F30E081E090E0022E02C0880F991FFF
:100880000A94E2F7842B8C9347C08B81882309F06C
:1008900043C0A5E3B0E0E5E3F0E08081482F8A8122
:1008A000282F30E081E090E0022E02C0880F991FCF
:1008B0000A94E2F7809584238C932EC08B8181303B
:1008C000A1F4A2E3B0E0E2E3F0E08081482F8A8166
:1008D000282F30E081E090E0022E02C0880F991F9F
:1008E0000A94E2F7842B8C9317C08B818823A1F4A0
:1008F000A2E3B0E0E2E3F0E08081482F8A81282F74
:1009000030E081E090E0022E02C0880F991F0A9427
:10091000E2F7809584238C930F900F900F900F90A7
:100920000F90CF91DF910895DF93CF9300D000D047
:100930000F92CDB7DEB78A836B838A81282F30E090
:100940003D832C834C815D814130510541F18C8187
:100950009D818230910534F42C813D812115310532
:1009600061F052C04C815D814230510551F18C8162
:100970009D8183309105B9F147C0E9E3F0E08081C2
:10098000282F30E08B81882F90E0A90102C0559577
:1009900047958A95E2F7CA018170898335C0E6E3FD
:1009A000F0E08081282F30E08B81882F90E0A90132
:1009B00002C0559547958A95E2F7CA0181708983EF
:1009C00023C0E3E3F0E08081282F30E08B81882F83
:1009D00090E0A90102C0559547958A95E2F7CA01B2
:1009E0008170898311C0E0E3F0E08081282F30E03E
:1009F0008B81882F90E0A90102C0559547958A9573
:100A0000E2F7CA018170898389810F900F900F905E
:100A10000F900F90CF91DF910895DF93CF9300D087
:100A200000D0CDB7DEB789836A838981282F30E073
:100A30003C832B838B819C818130910549F12B81F3
:100A40003C81223031052CF48B819C81009761F030
:100A50005AC02B813C812230310571F18B819C8100
:100A600083309105E9F14FC0ABE3B0E0EBE3F0E098
:100A70008081482F8A81282F30E081E090E0022E8B
:100A800002C0880F991F0A94E2F784278C933BC019
:100A9000A8E3B0E0E8E3F0E08081482F8A81282FC6
:100AA00030E081E090E0022E02C0880F991F0A9486
:100AB000E2F784278C9327C0A5E3B0E0E5E3F0E0FC
:100AC0008081482F8A81282F30E081E090E0022E3B
:100AD00002C0880F991F0A94E2F784278C9313C0F1
:100AE000A2E3B0E0E2E3F0E08081482F8A81282F82
:100AF00030E081E090E0022E02C0880F991F0A9436
:100B0000E2F784278C930F900F900F900F90CF9166
:100B1000DF910895DF93CF93CDB7DEB70E94360003
:100B20000E94430080E090E0CF91DF910895F89417
:020B3000FFCFF5
:00000001FF
